:100000000C942E020C94B5160C944B020C944B02DB
:100010000C944B020C944B020C944B020C944B022C
:100020000C944B020C944B020C94C51D0C94991E1D
:100030000C94C0180C944B020C944B020C944B0281
:100040000C944B020C944B020C944B020C944B02FC
:100050000C944B020C9463190C944B020C944B02BD
:100060000C944B020C944B020C944B020C944B02DC
:100070000C944B020C944B020C944B020C944B02CC
:100080000C944B020C944B020C944B020C944B02BC
:100090000C944B020C944B020C944B020C944B02AC
:1000A0000C944B020C944B020C944B0229001E0042
:1000B0001F0020002100220046002B0014001A001F
:1000C00008001500170013001000040016000700B8
:1000D00009000A000D00E1001D001B0006001900C8
:1000E00005003F00E000E300E20065000F002C0087
:1000F000400000003E003D003C003B003A00000094
:1001000000000000000000000000000000000000EF
:10011000A900A800AA000000000000000000AB0039
:10012000AD00AC000000000000004F005100520084
:1001300050002A002800035029001E001F00200044
:100140002100220035002B0014001A0008001500C1
:1001500017002F00390004001600070009000A00EC
:100160003400E1001D001B00060019000500AE0070
:10017000E000E300E200650003502C00AB00460005
:10018000270026002500240023002D003100130045
:1001900012000C0018001C0030004A0033000F0051
:1001A0000E000D000B002E004D0038003700360009
:1001B000100011004C004F005100520050002A0066
:1001C0002800E60029003A003B003C003D003E00CC
:1001D0003F002B005F00600061006200AD00AE00D8
:1001E00039005C005D005E00AC00AB00A900E100DE
:1001F00059005A005B00AA00A8005300E000E30089
:10020000E200650003502C00000046004500440059
:1002100043004200410040000000000000004B008D
:100220004A00490000000000000000004E004D00A0
:100230004C000000E700E400E6006500000000005C
:1002400000004F0051005200500000002800000044
:100250002900CE5CCF5CD05CD15CD25C00002B006E
:10026000C05CC15CC25CBC5CBF5C000039000000CB
:10027000C45CC65CBD5CBE5C0000E1000000C55C07
:10028000C75C000000000000E000E300E200650041
:1002900000002C000000000000000000045002508C
:1002A0000150005000000000D65CD55CD45CD35CEB
:1002B00000000000CC5CCA5CC85CC65CC45C00008A
:1002C0000000CD5CCB5CC95CC75CC55C00004F0026
:1002D0005100520050002A002800000000000000D9
:1002E000000000000000000000000000000000000E
:1002F00000000000000000000000000000000000FE
:1003000000000000000000000000000000000000ED
:100310000000000000000000000000000153000089
:1003200000000000000000000000000000000000CD
:1003300000000000000000000000000000000000BD
:1003400000000000000000000000000000000000AD
:10035000000000000000000000000000000000009D
:10036000000000000000000020034500720067004C
:100370006F00440061007300680020007200650097
:10038000760031002E00320000000C034F006D009B
:100390006B006200640000000403090409023B00D2
:1003A000020100A0FA090400000103010100092173
:1003B0001101000122400007058103080001090422
:1003C0000100010300000009211101000122320097
:1003D000070582032000011201000200000008ED61
:1003E000FE606000010102000105010980A1018594
:1003F0000319012AB700150126B700950175108170
:1004000000C0050C0901A101850419012AA00215EB
:100410000126A002950175108100C005010906A101
:1004200001050719E029E7150025019508750181E7
:10043000029501750881010507190029FF1500269D
:10044000FF00950675088100050819012905950525
:1004500075019102950175039101C00011241FBE21
:10046000CFEFDAE0DEBFCDBF11E0A0E0B1E0EEEF0C
:10047000F1E402C005900D92A839B107D9F722E046
:10048000A8E9B1E001C01D92A339B207E1F70E94CB
:10049000A4130C94E7200C9400000E94F80F089518
:1004A000089581E0089581E008950E94530208951F
:1004B00008950E9458020895A5E0B0E0E2E6F2E057
:1004C0000C94672049835A8330919F0189819A81D6
:1004D000311119C0662399F0222389F00E942F0858
:1004E000182F682F89819A810E940B0869817A816F
:1004F000812F0E94920E2596E3E00C9483200E94A7
:100500001D08182FF3CF0E942F0869817A81F1CF3F
:10051000FC01262F408151816281738184810E9478
:100520005C02089581E00895CF93DF93EC0160E0D1
:100530000E948802BE010E945902DF91CF91089566
:100540000E944D0208950E94FA0F08950E94D60657
:100550000E9450022FEF84E39CE0215080409040A5
:10056000E1F700C0000008950E94A6020E948719CA
:1005700008950E94A6020E94981908950F931F9350
:10058000CF93DF938C0161E00E948802EC01B801F7
:100590000E945502811106C080E0DF91CF911F912A
:1005A0000F910895B801CE010E94C5158823A1F3CB
:1005B000B801CE010E94C913882371F3B801CE019E
:1005C0000E943715882341F3F8018281882361F066
:1005D000CB35FDE5DF0701F158F4C115ECE5DE0789
:1005E00091F0CF3DDC4591F0C8010E945102D5CF7A
:1005F000CD358DE5D80769F090F0C83ADD45A1F713
:100600000E94B902C9CF0E94B402C6CF0E94E20C78
:10061000F7CF0E94270CE8CF0E94310CE5CF0E9453
:10062000350CE2CF0E949D180E942F0308950E946E
:1006300033030E94A218089508950E941C03089590
:1006400081E008950E94200308950895CF93C82F54
:100650000E941D038C2F0E942203CF91089580E0F9
:100660000E94260308950E94DB170E942603089526
:10067000CF930E94DB17C82F80919A018C1779F0D5
:10068000C0939A010E942C1960939B0170939C0166
:1006900080939D0190939E018C2F0E942603CF9101
:1006A0000895ABE0B0E0E7E5F3E00C9468204F83F9
:1006B000588769877A878B8761110E94720B1E8227
:1006C0001D8285E0FE013796DE01119601900D92A4
:1006D0008A95E1F78C819D81892B61F449815A814A
:1006E0006B817C818D819E810E949B0A2B96E2E02A
:1006F0000C94842089819A8189238F3F79F3CE01DC
:1007000001960E9492028111E9CFF0CFFC01808115
:1007100091810E9461080895CF93C82F8823C9F062
:100720008238C9F40E94DB1781FD13C089E30E945F
:100730002A0B0E94930B2FEF87EE93E0215080400D
:100740009040E1F700C0000089E30E94320B0E9454
:10075000930BCF9108958338A1F40E94DB1780FD9D
:10076000F8CF83E50E942A0B0E94930B2FEF81EEB6
:1007700094E0215080409040E1F700C0000083E504
:10078000E4CF8438A1F40E94DB1782FDE2CF87E436
:100790000E942A0B0E94930B2FEF81EE94E02150D0
:1007A00080409040E1F700C0000087E4CECF8CEF9E
:1007B0008C0F813A90F46C2F80910001909101018F
:1007C0000E943818882329F08C2F0E94320B0E9437
:1007D000930B8C2F0E942A0BBACF80E28C0F8830AB
:1007E00048F4C77081E001C0880FCA95EAF70E94FB
:1007F000550BADCFEBE5EC0FE33040F4F0E0EA5AF7
:10080000FE4F808190E00E94FA17A3CFC85AC731EB
:1008100008F09FCFEC2FF0E0EE0FFF1FE85DFE4FDA
:10082000808191810E94101894CF882309F44DC0D3
:10083000823879F40E94DB1781FF47C089E30E9468
:100840002A0B0E94930B89E30E94320B0E94930BA8
:100850000895833859F40E94DB1780FF36C083E582
:100860000E942A0B0E94930B83E5EECF843859F443
:100870000E94DB1782FF29C087E40E942A0B0E9496
:10088000930B87E4E1CF9CEF980F913AE8F290E266
:10089000980F983050F4877091E001C0990F8A95B5
:1008A000EAF7892F0E945B0BD1CF9BE5980F93301D
:1008B00028F490E080E00E94FA170895885A873162
:1008C00020F490E080E00E94101808951F93CF93C9
:1008D000DF93182FEB010E948C03209739F4812FAE
:1008E0000E941504DF91CF911F9108958FE99FE039
:1008F0000197F1F700C000002197EFCF70E060E0B2
:10090000893311F460E570E00E946604089588233D
:1009100021F00E94550B0E94930B0895882321F02B
:100920000E945B0B0E94930B0895B0E0A0E0EBE9FE
:10093000F4E00C9461206C01D62FC72FFC011281CA
:10094000F580F2949FE0F9220E944B0BE82E882359
:10095000B9F0E12E1123A1F08C2F807F803421F09B
:1009600080E28D0F8830D0F080916B0282FF16C03C
:1009700082E00E94F60B0E944B0B91E0E82EE926E4
:10098000BC2EB2948FE0B822FBE0FB1508F468C0DF
:10099000EB2DF0E0E751FF4D0C945220E12CF0CF0D
:1009A0000C2F0F70C07F11F00295007F112399F07A
:1009B000002359F080E28D0F883010F0D11107C06C
:1009C000802F0E94550B0E94930B8D2F41C0802FCA
:1009D0000E94650BF8CF8D2F0E941504002309F4A7
:1009E0003FC080E28D0F883010F0D11104C0802FFD
:1009F0000E945B0B03C0802F0E946B0B0E94930B25
:100A00002FC00C2F0F70C07FC03211F00295007FF5
:100A1000DD2381F0D13009F463C0112309F46DC0E6
:100A2000FF2009F463C0F601858180FFCECF8F706F
:100A300085835CC080916B0282FD33C0112359F025
:100A4000002329F0802F0E94550B0E94930B80E019
:100A50000E948C0305C080E00E9415040111C7CFDD
:100A6000EB2DE850FF0B349720F40E94DB170E9417
:100A70002603EE2089F00E94470B80FD0DC0F60191
:100A800012820E94410B0E946907C6010E949A06C9
:100A90000E94410B0E947907CDB7DEB7E9E00C94C4
:100AA0007D20112389F0F11006C00E94750B802B68
:100AB0000E948704D5CF21E0F212F7CF0E94750B78
:100AC000802B0E947C0BCCCFF11006C00E94890BBA
:100AD000802F0E948E04C4CF31E0F31609F2F6CFC6
:100AE000112331F085E08F1508F4BACF802FE0CFC5
:100AF00094E09F1508F4B4CFEBCFFF2049F3D9332E
:100B000049F4FFEF27EE33E0F15020403040E1F7A9
:100B100000C000008D2F0E941504A2CF8C2F869557
:100B20008695837069F0813009F09ACF8D2F9C2FC4
:100B30009370111102C090E080E00E94101890CFD5
:100B40008D2F9C2F9370111102C090E080E00E94C5
:100B5000FA1786CF8C2F8370A1F5111181CF4D2FFD
:100B6000429546954770440F440F2D2F2F7030E06B
:100B7000042E02C0220F331F0A94E2F790E080E0B7
:100B8000D4FF09C08FE090E002C0880F991F4A95FA
:100B9000E2F780959095C695C695C370822B932BEE
:100BA000C23049F058F4C13019F00E94370758CFCD
:100BB0000E942E0755CF0E94400752CF0E942B075C
:100BC0004FCF8695112311F08C2F8170882309F463
:100BD00047CF4D2F429546954770440F440F2D2F18
:100BE0002F7030E0042E02C0220F331F0A94E2F768
:100BF00090E080E0D4FF09C08FE090E002C0880F51
:100C0000991F4A95E2F780959095C695C695C37051
:100C1000822B932BC23049F058F4C13019F00E9456
:100C2000A4071ECF0E949B071BCF0E94AD0718CFC1
:100C30000E944F0715CFCF70112329F08C2F0E94EF
:100C400069078D2F35CF8D2F0E948E048C2F0E9427
:100C5000790706CFD23F51F160F4D03FB9F0D13FD0
:100C600081F0112309F449C0F110AFCE8C2F8F71A0
:100C700021C0D33F11F1D43FA1F780916B0282FDD7
:100C800026C08C2F8F71112311F314C0112349F04A
:100C900084E08F1508F4E4CE8C2F8F710E948B07AF
:100CA000DFCE95E09F1508F4DBCEF6CF8C2F8F7149
:100CB0001111CDCF0E946907D3CE112329F08C2FBB
:100CC0008F710E945D07CCCE0E945807C9CE1123B8
:100CD00049F0CF718C2F0E94690763E08C2F0E942E
:100CE000D80BBECE81E00E94F60BE1E0EF1508F0D4
:100CF000B7CE82E00E94F60BB3CEF11000CF8C2F5E
:100D00008F71A5CF0F931F93CF93DF93EC01688171
:100D100079818A810E946C088C010E94B6070E942A
:100D20002A07B801CE010E949504DF91CF911F914F
:100D30000F910895CF93DF93EC018B819C81892BD8
:100D400029F08881998189238F3F51F4DF91CF91D8
:100D50000895CE010E948206CE010E949402F6CF31
:100D6000CE010E94BE028111F4CF0E944B0B88235A
:100D700069F38A81882351F380916B0282FFE6CF69
:100D800082E00E94F60BE2CF90E080E00E94FA172A
:100D900090E080E00E9410180E94720B0E94930B5A
:100DA00008950E943A0B0E94C40608950E94620BA7
:100DB0000E94D106089592959F70963091F058F454
:100DC000925F9F70923058F4803F19F030F4883E63
:100DD00030F481E008959A5FF4CF843FD1F380E04E
:100DE0000895883EB0F3813FD1F7F3CFFC018381B2
:100DF0009481892B29F08081918189238F3F11F47F
:100E000080E00895808191810E9461080E94DB0644
:100E10000895A5E0B0E0EFE0F7E00C946820259697
:100E2000E2E00C948420A6E0B0E0E9E1F7E00C9465
:100E300068202696E2E00C94842008950E941D0705
:100E400008950E941E079093C7018093C6010E94D7
:100E5000C406089508950E94210708952091C601AF
:100E60003091C701822B932B0E9421070895209176
:100E7000C6013091C701822393230E942107089560
:100E80002091C6013091C701822793270E94210734
:100E900008950E941D0708950E94490708950E9421
:100EA0004C079093C5018093C4010E94C406089525
:100EB00090E080E00E944F07089521E030E0A90112
:100EC00002C0440F551F8A95E2F7CA010E944F07DE
:100ED000089521E030E002C0220F331F8A95E2F727
:100EE0008091C4019091C501822B932B0E944F07E2
:100EF000089521E030E002C0220F331F8A95E2F707
:100F0000209530958091C4019091C501822393234F
:100F10000E944F07089521E030E002C0220F331FE6
:100F20008A95E2F78091C4019091C50182279327A9
:100F30000E944F0708952091C4013091C501822B72
:100F4000932B0E944F0708952091C4013091C50151
:100F5000822393230E944F0708952091C40130916A
:100F6000C501822793270E944F0708950895262FD1
:100F7000277091E001C0990F2A95EAF723E0769552
:100F800067952A95E1F7660F771F660F771FFA01BD
:100F9000E60FF71F50E040E0682F70E08191DF011D
:100FA00011979B01042E02C0369527950A94E2F70B
:100FB000217021952827292328272C934F5F5F4FE5
:100FC0004430510559F70895A82FA77023E096954E
:100FD00087952A95E1F7880F991F880F991FFB01C4
:100FE000E80FF91F50E040E080E0219130E00A2E48
:100FF00002C0369527950A94E2F721703327042E14
:1010000001C0220F0A94EAF7822B4F5F5F4F4430F2
:10101000510559F70895262F9A3070F4873060F4FF
:10102000682F70E087E0989F600D711D112440EAE1
:1010300051E0822F0E94B7070895292F9A3068F453
:10104000873058F490E060EA71E037E0239F800D2C
:10105000911D11240E94E407089580E00895B0E0F6
:10106000A0E0E5E3F8E00C9461207C010091C4016C
:101070001091C5018091C6019091C701082B192BD1
:10108000CFE0D0E0CC24C394D12CBC2EC6010C2ED2
:1010900002C0880F991F0A94E2F780239123892BBD
:1010A00049F4219790F7B12C8B2DCDB7DEB7E9E04D
:1010B0000C947D20B7018C2F0E94AD0E019789F30F
:1010C000F3CFCF93DF93EC010E942F08BE010E9463
:1010D000AD0EDF91CF9108951F93CF93DF93EB0176
:1010E00090919F01992339F0CB010E946108DF9113
:1010F000CF911F910895882369F0CB010E942F089A
:10110000182F682FCE010E940B08BE01812F0E946C
:10111000AD0EEDCFCB010E941D08182FF6CF1F9307
:10112000CF93DF93C091C80116E08091C9018C1361
:1011300004C0DF91CF911F910895D0E01C9FF00172
:101140001D9FF00D1124E653FE4F408151816281B5
:101150007381848195810E9413072196C770E5CF22
:101160004091FA015091FB016091FC017091FD01E9
:101170008091FE019091FF010E94130708951F9333
:10118000CF93DF938091FF01807F09F049C0809168
:10119000FC01882309F444C08091C801C091C901B1
:1011A0006091FA017091FB01A091FD01B091FE01E7
:1011B000D62FD72316E0C81799F190E0109711F0B9
:1011C000DF3F19F401968770F6CF189F9001199FA1
:1011D000300D1124F901E653FE4F41814713F2CF40
:1011E00040814613EFCF42814111ECCF43815481BE
:1011F0004A1B5B0B4837510528F78091FF018F7020
:1012000080618093FF01F901E153FE4F80818F706F
:10121000806180838AEF91E00E949A060E948F0885
:10122000DF91CF911F910895A1E1B0E0EAE1F9E0EB
:101230000C9460208C0185E0F801DE011D96019080
:101240000D928A95E1F7F801E2808AEFC82E81E0DD
:10125000D82E6091FD017091FE016115710509F4B0
:101260004EC19091FA012091FB01892F82238F3F7B
:1012700009F445C140815181A380B480F090FC0104
:10128000F501E61BF70BFF2009F4EAC08091FF018E
:10129000382F307FE837F10508F0A3C031116DC059
:1012A000FE2C251316C0941314C0E11012C08F70C9
:1012B00080618093FF010E94B008C6010E949A06D7
:1012C0008091FF01F80185838F2D6196EAE00C94EF
:1012D0007C20A114B10429F0842F85238F3F09F0CD
:1012E00027C180E0F82FF170DF2E80FF3CC0809195
:1012F000C8012091C90136E0821315C04D875E8771
:101300008D859E850E946108292F22952F7022309D
:10131000F0F0243018F59F70F1F0F8019581907F7E
:10132000D1F4D12C1EC090E0389FF001399FF00D10
:101330001124E653FE4F6181651306C0608164137A
:1013400003C06281E6120FC001968770D5CF9F70EF
:1013500011F0882331F3805E883018F3C8010E94B1
:101360009A06FD2CB1CFEE2009F4AECF8091FF019B
:1013700081608093FF01F12CA7CF251306C0941341
:1013800004C0F801EE2009F487C0C8010E94F606E7
:10139000882319F1EE2009F18091FF01803270F06D
:1013A0002091FA013091FB0138872F831986BB8683
:1013B000AA868C87CE0107960E949A0686E0F801DD
:1013C000AAEFB1E001900D928A95E1F70E94BF0863
:1013D0000E94B008FF24F39477CFC8010E949A06B8
:1013E000F9CF311113C07A2DB98AA88A6E2D898957
:1013F0000E9409078AEF91E00E949A0686E0F601B2
:1014000011928A95E9F70E94B008B5CF25130FC055
:1014100094130DC0E1100BC0F8018583C8010E9430
:101420009A0686E0F60111928A95E9F74DCFC80138
:101430000E94F606882389F2EE2079F28091FF015E
:10144000803208F4BBCF2091FA013091FB013A833E
:1014500029831B82BD82AC828E83CE010196ACCFE4
:10146000E837F10508F03EC0FE2CEE2009F4B5CFB8
:1014700025132AC0941328C08091FF0180FD1BC052
:10148000982F907FC1F0F8018583903F31F0982F1D
:10149000907F905F8F70892B8583C8010E949A0688
:1014A00086E0F801AAEFB1E001900D928A95E1F78C
:1014B0000E94B00809CF86E0F801AAEFB1E00190E0
:1014C0000D928A95E1F700CFC8010E94F6068111BE
:1014D00075CF8091FF0181608093FF01C8010E9458
:1014E0009A06F2CE7A2DB98AA88A6E2D89890E9431
:1014F000090786E0F60111928A95E9F7D9CFEE2027
:1015000009F46BCFC8010E94F606F82E882309F46F
:1015100064CF86E0F801AAEFB1E001900D928A95C0
:10152000E1F78AEF91E00E9486030E94BF08C0CFD6
:1015300081E08E25D7CEACE0B0E0E1EAFAE00C9491
:1015400067204F83588769877A878B879C87CE016E
:1015500007960E941409882369F08A859B85892B48
:1015600039F04F815885842F85238F3F09F06BC058
:1015700016E05FC086E0FE013796DE01119601900D
:101580000D928A95E1F78A859B85892B89F3888559
:101590009F8189238F3F61F32091C90130E0C90108
:1015A0000196877099274091C8014817190671F470
:1015B0000E94D6061092C9011092C80186E0EAEF97
:1015C000F1E0DF011D928A95E9F7D2CF96E0929F74
:1015D000D001939FB00D1124A653BE4FFE0131964A
:1015E00001900D929A95E1F78093C9010E948F08AE
:1015F000BFCF819FC001112486539E4F0E941409C2
:101600008823E9F0E091C8011E9FF0011124E65300
:10161000FE4F4081518162817381848195810E9456
:1016200013078091C80190E00196877099278093F5
:10163000C8018091C8019091C9018913DACF2C9615
:10164000E3E00C94832069857A858B859C850E94D4
:1016500013078ECF682F80910001909101010E94A5
:101660006E180895682F80910001909101010E94E9
:101670007118089580910001909101010E947418E1
:1016800008958091080285958595859508958091A6
:1016900008028770089590910802977081E009F41C
:1016A00080E0089580911302089590911302892B90
:1016B000809313020895809590911302982390933C
:1016C0001302089510921302089590911202892B2B
:1016D000809312020895809590911202982390931E
:1016E000120208951092120208958091090208953D
:1016F00008950E94780B089590916B0292FF08C0A4
:1017000090910902981721F0809309020E94790BA9
:10171000089580910902882329F01092090280E03F
:101720000E94790B0895CF93DF93E0910001F0912F
:101730000101809113028083E0910001F091010189
:10174000808190911202892B8083909109029923C4
:1017500081F0E0910001F09101018081892B80836B
:1017600080910001909101010E94261881110E9430
:10177000890BC0910001D091010148E050E060E088
:1017800072E0CE010E948F20892B59F088E0FE0183
:10179000A0E0B2E001900D928A95E1F7CE010E949F
:1017A000EF17DF91CF91089508950E94D40B08950B
:1017B00090916B0292FF11C098E0899F90011124D3
:1017C000622B609308020E94690780910802859548
:1017D000859585950E94D50B08950E946907089507
:1017E0001092080280E00E94D50B089590910802A3
:1017F0008095892380930802282F277091F4282F41
:10180000082E000C330B9217130659F090916B02BF
:1018100092FF07C08595859585950E9479070E945E
:10182000F00B089590916B0292FB222720F9281764
:1018300069F080FB92F990936B0280916A0290911B
:101840006B020E945C0C82E00E94F60B089580916E
:101850006B0282FB882780F991E089270E94120C95
:10186000089581E00E94120C089580E00E94120CFD
:10187000089590E080E00E94AD2021E0883E9E4FD8
:1018800009F020E0822F089582E090E00E94A520D8
:10189000089583E090E00E94A5200895CF9384E00E
:1018A00090E00E94A520C82F82E290E00E94A5202F
:1018B000982F8C2FCF910895CF93C92F682F84E054
:1018C00090E00E94B3206C2F82E290E00E94B3204F
:1018D000CF910895AB01BC018FE090E00E94C5203C
:1018E0000895AB01BC0183E190E00E94C5200895FA
:1018F00060E070E0CB010E94710C089560E070E040
:10190000CB010E946A0C0E94780C089568EE7EEF6D
:1019100090E080E00E94D12060E082E090E00E94B0
:10192000B32060E083E090E00E94B3201092C701F2
:101930001092C60160E084E090E00E94B32064E071
:1019400082E290E00E94B32060E085E090E00E9497
:10195000B32060E086E090E00E94B3206FEF87E064
:1019600090E00E94B32040E050E0BA0188E090E0AF
:101970000E94C52060E08DE090E00E94B32040E02E
:1019800050E0BA0188E190E00E94C52060E087E164
:1019900090E00E94B32040E050E0BA018CE190E07A
:1019A0000E94C52070E060E080E290E00E94D120BB
:1019B00040E050E0BA0188E190E00E94C5200E941A
:1019C0007E0C08950E94860C0895682F8EE090E0AA
:1019D0000E94B32008950E942C19609324027093F2
:1019E0002502809326029093270260932002709331
:1019F000210280932202909323020895089508956E
:101A00000E94FF0C089508950E94030D089587ED2C
:101A10009FE00E94D1170E94FE0C0E94000D0895C5
:101A20000E94A0110895089508950E94130D0E9428
:101A3000140D08950E94DA0F0E94250308950E9454
:101A400017190E94970F0E94BB110E9401110E945A
:101A50001A0D0E94B1130E94C5110E94040D089531
:101A6000AAE0B0E0E6E3FDE00C9460200E942411BF
:101A700086E1A82E82E0B82E750110E0F7010191F1
:101A80007F01812F0E94FD0F1F5F1A3009F440C0B3
:101A90000817A1F38091280281FD0E9403100E9483
:101AA000100DC82E10E0812F0E94FD0F082FF501A8
:101AB00081915F01081731F1F12CEE24E394D02ECF
:101AC000D8268D2D8E21B1F0CC20A1F0FE821F836F
:101AD00091E0802F8E2109F490E098870E942019D0
:101AE0008160782F9A8789874E815F8168858A8592
:101AF0000E945103F394EE0CF7E0FF12E2CFF501E0
:101B0000319700831F5F1A3071F60E94EB0C20C0E2
:101B10000813C0CF0E9420198C018091140290916B
:101B2000150208171907A1F08FEF89838A831B829A
:101B30000E9420198160782F9D838C8349815A816E
:101B40006B818D810E945103109315020093140242
:101B50000E94A0110E9438032A96EAE00C947C208F
:101B6000CF93DF930E94B20EEC01811522E592071C
:101B7000E8F5811531E5930708F0A3C0883E91058B
:101B800010F5803E910570F5883A910570F4853A1C
:101B9000910508F078C08130910521F1009711F18D
:101BA000049700F5D0E0C0E01DC08F3B9105D0F751
:101BB000C85AD0E0CC0FDD1FC75ADE4F0990D8813C
:101BC000C02DD4640FC0811540E5940708F066C0AD
:101BD000C11580E4D80708F05EC0CE019A95811542
:101BE0009F4100F7CE01DF91CF910895811536E531
:101BF000930718F5811545E5940708F07BC0C115DA
:101C000084E5D80708F071C09E01237033279C2F0C
:101C100096959695C115D34508F458C0C1E0D0E01B
:101C200002C0CC0FDD1F2A95E2F730E2939FC0017E
:101C30001124C82BD92BDA68D5CFC1158AE5D8076E
:101C400078F4C11529E5D20708F05EC0C11538E562
:101C5000D30708F4A7CFDC2FCC27C06FD06AC2CF40
:101C6000CE0190568115904208F09CCF8D2F8F7138
:101C70000E94540F90E0982F882788279F719C011D
:101C80002C2BE9013FC0C55AD0E0C957DE4FC881AF
:101C9000D0E0D064A7CFDF70D06AA4CF837099273B
:101CA00021E030E002C0220F331F8A95E2F7C6958B
:101CB000C69580E2C89FE0011124C22BD32BDD68BA
:101CC00091CFD82FCC27C16FD06A8CCFC1E0D0E0A4
:101CD00002C0CC0FDD1F2A95E2F720E2929FC001DF
:101CE0001124C82BD92BDC687DCFDC2FCC27C46F07
:101CF000D06A78CF0E94540FC82FD0E0DC2FCC27B9
:101D0000CC27DF71D0626ECF8C2F8F700E94540F62
:101D100034E0D695C7953A95E1F7CF709C2FEC014A
:101D2000D06960CF972F7A30A8F4673098F470E0CC
:101D300027E0929F600D711D1124FB0196E4899F9D
:101D4000E00DF11D1124EE0FFF1FE455FF4F8591AB
:101D50009491089580E090E008950E94920E0E9470
:101D6000B00D089582389105B9F1B0F48133910531
:101D700009F47DC048F48932910509F46DC08A32B6
:101D8000910509F47BC008958533910509F45FC07E
:101D90008933910509F10895833E9105D9F138F40D
:101DA000803E910529F1823E910579F10895863EA4
:101DB0009105D9F1873E910509F43EC0843E910515
:101DC00041F520916B0221FF24C080916A0284FDBD
:101DD00019C087EE90E0089520916A02237009F0FF
:101DE0005AC020916B0223FF14C089E290E008954D
:101DF00020916A0220FD38C030916B0230FF09C08B
:101E000024FF43C090E080E0089520916A0222FD03
:101E1000F7CF089520916A0222FD3AC030916B02FB
:101E200030FD39C024FFF5CFEDCF20916A0223FFAA
:101E3000F0CF24FDE7CFCDCF20916A0223FD2EC045
:101E400030916B0231FFEECF84EE90E00895209147
:101E50006A0225FFDECFC9CF20916A0225FD21C08D
:101E600020916B0223FFD5CF89E390E0D2CF209160
:101E70006A0226FFCECF8AE290E0089520916A029E
:101E800026FFC7CF81E390E0089583EE90E00895A8
:101E900082EE90E0089580EE90E0089586EE90E066
:101EA000089585E390E0089590916A0292FF06C03C
:101EB000282F28712830F9F4877F846093FF06C0AB
:101EC000282F28712831F1F4877E846120916B02DC
:101ED00020FF06C0382F38713830D9F4877F8160F1
:101EE00021FF06C0282F28712831D1F4877E816117
:101EF00094FD877E0895282F24712430F9F68B7F76
:101F00008860DCCF282F2471243101F78B7E886113
:101F1000DDCF382F3171313019F78E7F8860E0CFF7
:101F2000282F2171213121F78E7E8861E1CF109217
:101F30006602109267021092680210926902089578
:101F4000CF92DF92EF92FF926B017C010E94A01171
:101F500081110EC00E942C19C61AD70AE80AF90A84
:101F6000C0926602D0926702E0926802F092690223
:101F7000FF90EF90DF90CF9008950F931F930E94F2
:101F8000A011882329F00E942C191F910F91089508
:101F90000E942C190091660210916702209168023C
:101FA00030916902600F711F821F931FEECF80E096
:101FB000089508950E94390C811102C00E94E20C1C
:101FC0000E94440C809328020E944E0C90936B0256
:101FD00080936A020E94D90F0E94490C90E00E94EF
:101FE0002B078091C4019091C5010E944C07089570
:101FF000089508950E94F90F0895E82FF0E0E95838
:10200000FD4F80810895089580EA8A95F1F708953B
:1020100000C008950E940410089508950E940D10B4
:102020000895A5E0B0E0E7E1F0E10C9464200E949F
:10203000A011F82E60918102882309F440C085E048
:10204000E82E8E010F5F1F4FF8018E2D11928A9599
:10205000E9F7862F90E0B80189589D4F0E94D3116F
:102060008823B9F080916C0290E045E050E0B8011F
:1020700089589D4F0E948F2021E020932902892BAF
:1020800091F4F12C0E94A3028F2D2596E6E00C948A
:102090008020809129028823A1F3F8011192EA940B
:1020A000E9F710922902A0916C02B0E0A958BD4F47
:1020B00085E0F80101900D928A95E1F7E3CF70E099
:1020C00069587D4F80916C0290E089589D4F0E9425
:1020D0005A120E940E10D8CFF894E82FE295EF70B4
:1020E000F0E031A1282F2F7081E090E001C0880F2F
:1020F0002A95EAF7982F9095932391A392A1892B83
:1021000082A3789408950F931F93CF93DF93C1E92F
:10211000D1E089918F3F11F00E946C1081E0C639A7
:10212000D807B9F7CAE8D1E001E911E089918F3FFA
:1021300011F00E946C100C171D07C1F7DF91CF91B1
:102140001F910F910895B0E0A0E0E9EAF0E10C944E
:102150006220EC01D62E062F10E0C8018F569E4F4C
:102160007C01FC0180818F3F09F444C0F894E82F82
:10217000E295EF70F0E091A18F7021E030E001C0B6
:10218000220F8A95EAF7892F822B81A382A12095BD
:10219000282322A378940E940810EAE8F1E031E0B5
:1021A000C12C21912F3F59F1A22FA295AF70B0E021
:1021B00090968C9190E02F7002C0959587952A9506
:1021C000E2F780FD1CC0832FC82A330F81E0E1397C
:1021D000F80739F7F70180818F3F11F00E946C10EA
:1021E00061E0C11001C060E08D2D0E940A10C00F97
:1021F000D11FC882CDB7DEB7E8E00C947E2080E026
:10220000E3CF809102018091020195E0811190E07D
:102210009093810285E0891B80936C020E94831059
:102220008AE0E7E7F2E0DF01982F1D929A95E9F73F
:10223000EDE6F2E0DF011D928A95E9F785E00E9464
:1022400062110E94A0020895AAE0B0E0EAE2F1E182
:102250000C9465208E010F5F1F4F8AE0F8011192E8
:102260008A95E9F7F12C6F2DC8010E94A310F39411
:10227000F5E0FF12F8CF4AE050E0B8018DE692E0B9
:102280000E948F2021E0009709F420E0892B41F083
:102290008AE0F801ADE6B2E001900D928A95E1F78F
:1022A0006091810270E069587D4F45E08DE692E0D3
:1022B0000E946311182F0E941110812B2A96E5E0CD
:1022C0000C9481200895CF92DF92EF92FF920F93AA
:1022D0001F93CF936C017B01042F222349F081E0EF
:1022E00080932C020E94201990932B0280932A0243
:1022F000C0912C02C1110AC0C0E08C2FCF911F9158
:102300000F91FF90EF90DF90CF90089580912A0277
:1023100090912B020E943819059770F310E0A801E4
:10232000B601C7010E948F20892B41F0A801B60198
:10233000C7010E949C2010922C02DFCFC0E0FBCF8F
:1023400080912F02811107C00E944520882351F0FF
:1023500081E080932F0281E090912F02913009F06B
:1023600080E0089582E080932F020E944020F3CF06
:102370000E94A01108950E94B811809302010E944A
:10238000A01181110E94091208950E94A0118111CB
:1023900002C00E940C12089581E0909130029A30A0
:1023A00008F080E008950F931F93CF93DF93EC0123
:1023B0008B01809130028A30B8F4B801CE010E94BE
:1023C0005712C82F811122C0809130028F3FB9F47B
:1023D0000E94201990932E0280932D028C2FDF9162
:1023E000CF911F910F91089580912D0290912E020F
:1023F0000E943819843F914000F7C0E0EFCF8F5F13
:10240000809330028A3020F7C1E0E8CF109230028A
:10241000E5CF0E946F1608950E9472160895B0E0ED
:10242000A0E0E5E1F2E10C9463207901C82F880F68
:10243000DD0B41155105A9F0FE0193E0EE0FFF1FE2
:102440009A95E1F7ED5FFE4F818192818F5C9D4F00
:10245000208130E04217530708F49A01A9010E9435
:102460009C20CE010E945B17D82E8823D1F0011545
:102470001105B9F083E0CC0FDD1F8A95E1F7FE016D
:10248000ED5FFE4F438150E00417150708F4A801E3
:10249000CD5FDE4F6C817D816F5C7D4FC7010E94F7
:1024A0009C208D2DCDB7DEB7E7E00C947F200E94F5
:1024B000491308950E9460130895A4E0B0E0E3E694
:1024C000F2E10C946620609148027091490280917B
:1024D0004A0290914B020E94471911E0643671053F
:1024E0008105910518F10E94BD0F6E5F7F4F8F4FE0
:1024F0009F4F69837A838B839C8310E000E030E0F8
:1025000020E044E050E0BE016F5F7F4F82E00E9418
:102510000F12182F882351F00E942C196093480243
:102520007093490280934A0290934B02812F249624
:10253000E4E00C948220B0E0A0E0E1EAF2E10C9447
:1025400060207C015B016A010E94CC1101E010E077
:10255000882311F00AE010E0C1E0D0E0B501C70126
:10256000F6010995811104C021960C171D072CF462
:10257000CDB7DEB7EAE00C947C20CC9F9001CD9FD4
:10258000300D300D112490E080E045E34A95F1F7DD
:102590000000019682179307C1F7E0CFA6E0B0E0F4
:1025A000E4EDF2E10C9460207B01C0909601D090A4
:1025B000970101E010E09E012A5F3F4F50E040E0AC
:1025C00070E060E080E00E940F12182F882309F469
:1025D00048C056018FEFA81AB80A60914402709162
:1025E000450280914602909147020E944719643645
:1025F00071058105910568F105E010E09E012F5FEE
:102600003F4F50E040E070E060E081E00E940F1238
:10261000D82E65E070E0C5010E94B21311E09E81E2
:10262000981310E01D2141F10E942C19609344027F
:1026300070934502809346029093470285E0FE0125
:102640003196AFE3B2E001900D928A95E1F711E087
:1026500013C065E070E0C5010E94B2139E8189132A
:10266000CBCF85E0F6013196DE01119601900D92F7
:102670008A95E1F71111E2CF85E0EFE3F2E0D701AF
:1026800001900D928A95E1F7812F2696EAE00C944D
:102690007C200F931F93CF93DF93EC018B014EECC3
:1026A00052E10E949B12882331F04DE552E1B801BE
:1026B000CE010E949B12DF91CF911F910F9108953F
:1026C0000F931F93CF93DF93C0919601D091970101
:1026D000CE01019625E0FB01DC0101900D922A95C7
:1026E000E1F765E070E00E94B21388836E817F811C
:1026F0008885998500913B0210913C0220913D0212
:1027000030913E02601771078207930751F0609382
:102710003B0270933C0280933D0290933E020E94E4
:10272000A00FDF91CF911F910F9108950E941B1B65
:102730000E941F0D0E94281B08950E942D1B0E94BD
:10274000300D0E94471B08950E94B9180E94011B7A
:102750000E94070D0E9496130E949D130E94150D62
:10276000FBCF0895FC01680F791F8FEF91E3E61707
:10277000F70709F408952191822728E030E087FFC8
:1027800006C0880F892721503109C9F7F0CF880F7B
:10279000FACFCF93DF93EC01FB018281882309F408
:1027A00064C1C430FDE5DF07E0F5CB3F9CE5D90708
:1027B00030F49E0122503C4524313105D8F50E9469
:1027C0004E0C90936B0280936A02C231ECE5DE07F7
:1027D00009F41FC108F06EC0C9308CE5D80709F4B0
:1027E000F2C008F03FC0C530ECE5DE0709F4DBC0FD
:1027F00058F5C3308CE5D80709F4CDC008F0CFC038
:1028000080916A028160C230DC4509F4AEC08091DB
:102810006A0290916B020E945C0C0E94D60680E0D6
:1028200009C0C63AEDE5DE0751F238F4C2369DE53F
:10283000D90729F2DF91CF9108959E012E5A3D4587
:1028400023303105B8F7BBCF80916A028062C73070
:10285000FCE5DF0709F489C008F4B1C080916A0281
:10286000806483C0CD309CE5D90709F4BAC070F408
:1028700080916A028E7FCB30FCE5DF0709F475C0DA
:1028800008F4A7C080916A028D7F6FC0CF309CE5AD
:10289000D90709F4B6C008F4A8C0C031FCE5DF07C9
:1028A00009F4B3C0C131DC4509F0B1CF80916A02AF
:1028B0008F7B5BC0C1159DE5D90709F4B4C098F5BD
:1028C000CB3FFCE5DF0709F472C0B8F4C4319CE5E6
:1028D000D90709F4B6C008F4A2C0C531DC4509F037
:1028E00096CF80916A0282FB992790F921E0922786
:1028F00090FB82F990FB83F938C0CD3F8CE5D80777
:1029000009F477C008F457C0CE3FECE5DE0709F4C0
:1029100074C080916B028360CF3FDC4509F077CFB4
:1029200080936B0274CFC2368DE5D80709F496C048
:1029300068F4C230EDE5DE0709F48CC008F477C016
:10294000C330DD4509F063CF80E085C0CE3A9DE518
:10295000D907E9F068F490916A02892F8E7F90FF81
:102960008160C63ADD4509F052CF80936A024FCFAD
:10297000CF3A8DE5D80789F1C03BDD4509F047CF57
:1029800090916B02892F877F93FF8860C9CF8091D8
:102990006B028860C5CF80916A028260E6CF809129
:1029A0006A028460E2CF80916A028860DECF809103
:1029B0006B028160B5CF80916B028260B1CF809154
:1029C0006A028061D2CF0E94D60680916A02806836
:1029D000CCCF80916A028C60C8CF80916B02877FD8
:1029E0009FCF80916A028B7FC0CF80916A02877FE0
:1029F000BCCF80916B028E7F93CF80916B028D7FD5
:102A00008FCF80916A028F7EB0CF80916A028F7DD6
:102A1000ACCF0E94D60680916A028F77A6CF8091B4
:102A20006A02837FA2CF80916B028C7F79CF8091E5
:102A30006B02982F909591708E7F892B90FB81F976
:102A40006FCF0E94D60690916A02892F97FB87F973
:102A500080588BCF81E00E94E50CD9CE90916A021C
:102A6000892F8F7E94FF806180CF81E0E3CECF936A
:102A7000DF93EB0186319C4511F50E94520B9A8140
:102A8000992399F08A7A91E009F490E090934C02AE
:102A9000811109C089E20E942A0B0E94930B80E0F9
:102AA000DF91CF91089585E3F6CF80914C0281119B
:102AB00004C089E20E94320BF0CF85E3FBCF81E0B6
:102AC000EFCF0F931F93CF93DF93C42FD22FFC012F
:102AD00082818823C9F040934F020E94201990936D
:102AE0004E0280934D0280E28C0F883040F4C77014
:102AF00081E001C0880FCA95EAF70E948704DF9140
:102B0000CF911F910F91089510914F02141332C06D
:102B100080914D0290914E020E943819883791059C
:102B200048F5C0E2CD0F1D17B9F080E2810F883063
:102B300040F4177081E001C0880F1A95EAF70E94EF
:102B40008E04C83048F481E09D2F977001C0880F33
:102B50009A95EAF70E948704802F0E947E04C8306D
:102B600070F6D77081E001C0880FDA95EAF70E940D
:102B70008E04C5CF80E28C0F883008F6C77081E0E4
:102B800001C0880FCA95EAF7F2CF0F939C01CB01E1
:102B9000243F4CE5340759F1A8F4293DFCE53F07F3
:102BA00001F12A3D4CE53407D1F1283D3C4591F433
:102BB00006E221EE41EE68ED7CE50E94611580E0C1
:102BC0000F910895263FFCE53F07E9F0B0F0273F5D
:102BD0003C45F9F0FC018281882339F110924F02C3
:102BE000EFCF07E225EE45EE69ED7CE5E6CF06E2A4
:102BF00021EE40EE64EF7CE5E0CF07E225EE44EE07
:102C000065EF7CE5DACF06E221EE42EE66EF7CE589
:102C1000D4CF07E225EE46EE67EF7CE5CECF08E2A3
:102C200021E045EE6AED7CE5C8CF81E0C9CF8EE1B9
:102C3000489B02C08150E1F7489BFECF0895589809
:102C400080E28A95F1F7589A0895FC013BE03A95A5
:102C5000F1F798E020E080E031E040E14A95F1F7BB
:102C6000880F489B02C08160232742E04A95F1F714
:102C7000000040E14A95F1F7915079F790E19A957B
:102C8000F1F799B132E03A95F1F7000040E14A9549
:102C9000F1F7917092272081920F90830895A1E01F
:102CA000B0E0E5E5F6E10C94642019828C017C012A
:102CB000E60EF11C0E151F0541F481E0998191117A
:102CC00080E02196E6E00C9480200E941716CE0149
:102CD00001960E942516F80181938F01EBCF509A3F
:102CE000589A08955098589AE89AE9E6F0E0808159
:102CF0008C7F808308956150770B91E001C0990F1C
:102D00006A95EAF720E031E0911108C0222391F0A2
:102D1000589A80E28A95F1F758980895492F4823E8
:102D200039F0589A232740E24A95F1F79695ECCF6F
:102D30005898F9CF5898EDCFFF920F931F93CF93E8
:102D4000DF93EC018C01060F111DC017D10729F488
:102D5000CDB7DEB7E5E00C948120F9900E941F16F4
:102D600068E08F2D0E947B16F0CF1F920F920FB656
:102D70000F9211240F931F932F933F934F935F93C1
:102D80006F937F938F939F93AF93BF93EF93FF9333
:102D9000CF93DF930F92CDB7DEB719820E9417163B
:102DA000CE0101960E942516082F069506950695D8
:102DB000282F22952570902F9570290F922F9370B0
:102DC00026952695920F982797708981982B09F060
:102DD0005CC0043008F059C080E18A95F1F7589A38
:102DE000509A82E08A95F1F700C0589888E0089FD1
:102DF00080011124D801AD5FBE4F1696ED91FC9174
:102E000017973097A9F060919601709197011496E9
:102E10002D913C911597260F371F11968D919C91FE
:102E20001297680F791F13964C9113978C910995FF
:102E3000F801ED5FFE4F6381662351F0209196010A
:102E40003091970184819581820F931F0E949C1677
:102E50000E941F1680E18A95F1F758985098589A69
:102E600080E18A95F1F7F801ED5FFE4F60816623FE
:102E700051F0209196013091970181819281820FCA
:102E8000931F0E944F160E9417160F90DF91CF914B
:102E9000FF91EF91BF91AF919F918F917F916F9132
:102EA0005F914F913F912F911F910F910F900FBE06
:102EB0000F901F9018950F931F93CF93DF93EC0102
:102EC00004970CF04CC0F894509A589885E08A9575
:102ED000F1F700009C2F969595708C2F8570980FB8
:102EE000892F83709695969523E0CC0FDD1F2A9548
:102EF000E1F7980F8E01092B0E941F1600C068E0B1
:102F0000802F0E947B1680E18A95F1F75098589A9D
:102F1000489B1EC087E090E048991CC0FE01ED5F11
:102F2000FE4F63816623F9F020919601309197015D
:102F300084819581820F931F0E944F16811113C0C7
:102F4000509A589A7894DF91CF911F910F910895DC
:102F500000C0DECF019729F4509A589A789480E007
:102F6000F2CF00C0D9CF0E94171680E28A95F1F700
:102F70005898509A80E18A95F1F7CD5FDE4F6881CD
:102F8000662351F0209196013091970189819A81B1
:102F9000820F931F0E949C160E941F16789481E056
:102FA000D2CF9093990180939801089590935602FF
:102FB0008093550208950E94A011811103C0809151
:102FC00050020895E0915502F0915602309729F091
:102FD0000190F081E02D0995089580E00895E09139
:102FE0005502F0915602309721F00280F381E02DD6
:102FF00009950895209153023091540228173907FA
:1030000071F09093540280935302E0915502F09135
:103010005602309721F00680F781E02D099508953A
:1030200020915102309152022817390771F0909384
:10303000520280935102E0915502F091560230976E
:1030400021F00084F185E02D099508959C012E5F03
:103050003F4FAC01485F5F4F80E02417350709F40C
:103060000895F90191919F019923B9F38F5FF5CFED
:10307000662349F0FC01329608962191261729F023
:10308000E817F907D1F780E0089581E008959C01E1
:10309000FC0132969FEF80E04191461751F09F3F2F
:1030A00019F4411101C0982F8F5F8630A9F79F3F17
:1030B00009F40895290F311D97FD3A95F9016283AE
:1030C0000895FC01329608962191261303C0DF0172
:1030D00011971C92E817F907B9F708950E9447184D
:1030E00008950E9461180895029626E0FC0111924D
:1030F0002A95E9F7089508950E947B180895811193
:1031000006C081E0809357020E947C18089582E0F7
:10311000F9CF83E0809357020E947C1808950E94A3
:103120007F18089581E0809357020E947C180895CB
:103130000E9492180895089508950E949C18089579
:10314000089508950E949B180895CF930E94A01897
:103150000E9424110E94A118C0E08C2F0E94FD0F34
:10316000811105C0CF5FCA30C1F7CF91089581E0CA
:10317000FCCF85B7806885BF85B7806885BF089517
:103180001F921FB61F9211248F939F93AF93BF93EB
:1031900080915802811113C0809182029091830224
:1031A000A0918402B09185024196A11DB11D80932A
:1031B000820290938302A0938402B0938502BF9110
:1031C000AF919F918F911F901FBE1F901895809176
:1031D0008A02843031F10E9412031092580288E171
:1031E00090E020E40FB6F894A895809360000FBE9D
:1031F0002093600083B7817F846083BF83B7816041
:1032000083BF7894889583B78E7F83BF0FB6F89479
:10321000A8958091600088618093600010926000A2
:103220000FBE08950E94D6060E941703089582E0FB
:1032300084BD93E095BD9AEF97BD80936E0008958D
:103240002FB7F8948091820290918302A09184021A
:10325000B09185022FBF08952FB7F8946091820234
:103260007091830280918402909185022FBF08950E
:103270009C014FB7F8948091820290918302A091B3
:103280008402B09185024FBF821B930B0895CF92A9
:10329000DF92EF92FF922FB7F894C0908202D09005
:1032A0008302E0908402F09085022FBFA70196016F
:1032B000261B370B480B590BCA01B901FF90EF9041
:1032C000DF90CF90089578941F921FB61F9211241B
:1032D0008F939F93AF93BF938091820290918302CB
:1032E000A0918402B09185020196A11DB11D809329
:1032F000820290938302A0938402B0938502BF91CF
:10330000AF919F918F911F901FBE1F90189587E7D7
:1033100097E7909301088093000888E19AE00FB640
:10332000F894A895809360000FBE90936000FFCF43
:1033300088E19AE00FB6F894A895809360000FBEDC
:1033400090936000FFCF8091640208950895CF9319
:10335000DF93EC0181E08093E9008FEF9091E8002A
:10336000815095FD06C095ED9A95F1F70000811109
:10337000F5CF8091E80085FF14C050E040E068E0A0
:1033800070E0CE010E94B91B8091E8008E77809397
:10339000E80088E0FE01ACE5B2E001900D928A956C
:1033A000E1F7DF91CF9108958093590270935B020A
:1033B00060935A0280918A02843001F582E0809302
:1033C000E9008FEF9091E800815095FD06C095EDE2
:1033D0009A95F1F700008111F5CF8091E80085FF03
:1033E0000DC050E040E063E070E089E592E00E94AB
:1033F000B91B8091E8008E778093E8000895BC01A6
:1034000084E00E94D4190895BC0183E00E94D4197D
:103410000895089580918902811109C00E94491D73
:103420000E94A61D8091E20084608093E2000895CE
:103430001092890208950E94921808956091860260
:1034400081E0611101C080E00E9489180895909187
:103450008A0281E0943009F080E0609186020E9447
:103460008F18089542E061EC81E00E94C51C42E2A1
:1034700061EC82E00E94C51C90918A0281E0943048
:1034800009F080E0609186020E947F180895809183
:103490008C02833009F461C030F48130D1F1823084
:1034A00009F49EC008958A3009F48AC08B3009F46B
:1034B0006FC0893009F050C080918B02813209F0D1
:1034C0004BC080918F0290919002029708F044C007
:1034D0008091E800877F8093E8008091E80082FF78
:1034E00037C09091F3008091F200029731F48091FF
:1034F000F100813011F0863021F48091F100809349
:1035000064028091E8008B778093E8000E94F91CA8
:1035100023C080918B02813AF9F48091E800877F83
:103520008093E80080918F0290919002892B61F442
:1035300068E08CE592E070E00E94081C8091E80051
:103540008B778093E800089560E090E080E0F3CF0F
:1035500080918A028111C1CF089580918B02813AB6
:10356000D9F780918F0290919002892BA9F78091D1
:10357000E800877F8093E8008091E80080FFFCCF1F
:10358000809127018093F1008091E8008E77BCCF75
:1035900080918B02813201F780918F02909190028D
:1035A000892BD1F68091E800877F8093E8000E9404
:1035B000F91C80918D02809327010E94D606089500
:1035C00080918B02813241F68091E800877F809361
:1035D000E8000E94F91C80918E0280936502089594
:1035E00080918B02813A09F0B7CF8091E800877F04
:1035F0008093E8008091E80080FFFCCF8091650215
:10360000C1CF84B7877F84BF0FB6F894A895809107
:103610006000886180936000109260000FBE80E8B7
:1036200090E00FB6F89480936100909361000FBE14
:103630000E94981808950E94491D0E94A61DE2EE5E
:10364000F0E080818460808378940E942520089532
:103650008BE191E00E94D617089580918A0285300F
:1036600031F480918A02853019F00E941219089570
:103670000E94E71880918802882399F30E94A51878
:10368000882379F30E94A31B0E94D606EACF0895EF
:103690000E944B1B0895292F33272330310519F140
:1036A00068F42130310509F444C02230310509F4B1
:1036B00045C090E080E030E020E025C021323105B7
:1036C00049F122323105A9F780E490E02BE134E0A2
:1036D00061157105C1F082E390E029EE33E06130BD
:1036E000710589F0E6CF99278130910581F0009727
:1036F00029F00297F1F6E8E6F3E002C0E8E9F3E02A
:10370000849190E09F01FA01318320830895EAE8D3
:10371000F3E0F6CF89E090E02EEA33E06115710521
:1037200091F389E090E027EC33E06130710559F3C3
:10373000C0CF82E190E027ED33E0E5CF8BE390E06E
:103740002CE933E0E0CF80E189BD82E189BD09B495
:1037500000FEFDCF8091D8008F7D8093D8008091AE
:10376000E00082608093E0008091E00081FDFCCF6A
:103770000895AF92BF92CF92DF92FF920F931F9363
:10378000CF93DF936C01EB018A010E94181DF82E84
:10379000811123C00115110539F0F8018081918153
:1037A000C81BD90BC80ED91EB12CA12C2097A9F08B
:1037B0008091E80085FD22C08091E8008E7780939B
:1037C000E80001151105A1F0F80180819181A80E92
:1037D000B91EB182A08285E0F82E8F2DDF91CF91A6
:1037E0001F910F91FF90DF90CF90BF90AF90089501
:1037F0000E94181D8823D1F2F82EEFCFF601819197
:103800006F018093F1002197FFEFAF1ABF0ACECF6F
:10381000FC01809191029091920286179707A0F087
:103820006115710529F49091E8009E779093E80066
:1038300090E06115710551F4911108C08091E80084
:1038400082FF34C080E00895BC01F2CF80918A02EB
:103850008823C1F18530C1F18091E80083FD30C03B
:103860008091E80082FDEACF8091E80080FFE1CFFF
:103870008091F3002091F200382F6115710519F045
:103880002830310558F091E02830310509F090E0FA
:103890002091E8002E772093E800CBCF8191809390
:1038A000F100615071092F5F3F4FE7CF80918A028D
:1038B000882341F0853041F08091E80083FFBECF3E
:1038C00081E0089582E0089583E00895FC018091ED
:1038D00091029091920286179707A0F061157105E9
:1038E00029F48091E8008E778093E80090E06115DC
:1038F000710551F4911108C08091E80082FF35C034
:1039000080E00895BC01F2CF80918A028823C9F13A
:103910008530C9F18091E80083FD31C08091E800D5
:1039200082FDEACF8091E80080FFE1CF8091F30033
:103930002091F200382F6115710519F028303105FA
:1039400058F091E02830310509F090E08091E800CE
:103950008E778093E800CBCF84918093F1003196ED
:10396000615071092F5F3F4FE6CF80918A02882313
:1039700041F0853041F08091E80083FFBDCF81E0C8
:10398000089582E0089583E00895982F973028F0F5
:103990008F708093E90081E008959093E900242FCF
:1039A000762F50E0981731F07091EC002091ED00E7
:1039B0005091F00021FD02C09F5FE8CF3091EB00F5
:1039C0003E7F3093EB003091ED003D7F3093ED0072
:1039D0003091EB0031603093EB007093EC0020935A
:1039E000ED005093F0002091EE0027FDE5CF80E040
:1039F000089580918B0287FF13C08091E80082FFB9
:103A000006C08091E8008B778093E80004C0809125
:103A10008A028111F2CF089580918A028823D9F316
:103A20008091E80080FFF8CF8091E8008E77ECCF9E
:103A30002091E4003091E50095E6A9012091EC0089
:103A4000822F817020FF06C08091E80080FF06C0B1
:103A500080E008952091E80022FD1AC080918A023A
:103A6000882389F0853089F08091EB0085FD0FC0B7
:103A70002091E4003091E50042175307F9F291508C
:103A8000E1F684E0089582E0089583E0089581E0FE
:103A900008950E94B81D0E94C01DE0EEF0E08081F4
:103AA00081608083E8EDF0E080818F77808319BCAE
:103AB000A7EDB0E08C918E7F8C9380818F7E808388
:103AC0001092890208950F931F93CF93DF930E9462
:103AD000B81D0E94C01DC8EDD0E088818F77888313
:103AE00088818068888388818F7D888319BC109243
:103AF0008A0210928602109288021092870200EECB
:103B000010E0F80180818B7F8083888181608883C9
:103B100042E060E080E00E94C51CE1EEF0E08081C0
:103B20008E7F8083E2EEF0E08081816080838081FF
:103B300088608083F80180818E7F808388818061A6
:103B40008883DF91CF911F910F910895E8EDF0E008
:103B500080818F7E8083E7EDF0E0808181608083CB
:103B600084E082BF81E0809389020E94631D0895F2
:103B7000E8EDF0E080818E7F80831092E20008956E
:103B80001092DA001092E10008951F920F920FB682
:103B90000F9211242F933F934F935F936F937F93D3
:103BA0008F939F93AF93BF93EF93FF938091E10027
:103BB00082FF0BC08091E20082FF07C08091E1008C
:103BC0008B7F8093E1000E9424208091DA0080FFA7
:103BD00019C08091D80080FF15C08091DA008E7FD7
:103BE0008093DA008091D90080FF96C080E189BD82
:103BF00082E189BD09B400FEFDCF81E080938A0295
:103C00000E940A1A8091E10080FF19C08091E200B1
:103C100080FF15C08091E2008E7F8093E20080914A
:103C2000E20080618093E2008091D80080628093FE
:103C3000D80019BC85E080938A020E941E1A8091E8
:103C4000E10084FF2BC08091E20084FF27C080E167
:103C500089BD82E189BD89B5982F917080FFFBCF26
:103C60008091D8008F7D8093D8008091E1008F7E75
:103C70008093E1008091E2008F7E8093E20080914A
:103C8000E20081608093E20080918602882309F43B
:103C900049C084E080938A020E94271A8091E10043
:103CA00083FF29C08091E20083FF25C08091E1005D
:103CB000877F8093E10082E080938A0210928602DF
:103CC0008091E1008E7F8093E1008091E2008E7F01
:103CD0008093E2008091E20080618093E20042E004
:103CE00060E080E00E94C51C8091F00088608093B5
:103CF000F0000E941B1AFF91EF91BF91AF919F912D
:103D00008F917F916F915F914F913F912F910F9084
:103D10000FBE0F901F90189519BC10928A020E9436
:103D2000181A70CF8091E30087FD93E090938A0288
:103D3000B3CF1F920F920FB60F9211242F933F9380
:103D40004F935F936F937F938F939F93AF93BF93A3
:103D5000CF93DF93EF93FF93D091E900DF708091D1
:103D6000EC00C82FC17080FDC0E81092E90080917E
:103D7000F000877F8093F00078940E94DD1E1092FF
:103D8000E9008091F00088608093F000CD2BCF7027
:103D9000C093E900FF91EF91DF91CF91BF91AF9177
:103DA0009F918F917F916F915F914F913F912F9153
:103DB0000F900FBE0F901F901895AAE2B0E0E3EEAF
:103DC000FEE10C9467208BE892E02091F100FC0169
:103DD0002193CF01F2E083399F07B9F70E94471A78
:103DE0008091E80083FF1EC180918B0290918C022C
:103DF0009A3008F017C1E92FF0E0EB50FF4D0C941A
:103E00005220803899F0823809F00CC180918F02DD
:103E10008F70873008F006C18093E9008091EB0035
:103E200085FB882780F91092E90006C080918702FF
:103E300090918802911182609091E800977F909311
:103E4000E8008093F1001092F1008091E8008E77F5
:103E5000E5C0882309F4D3C0823009F0E3C0809123
:103E60008D028111D6C080918F028F702FEF280FA5
:103E7000263008F0D7C08093E9002091EB0020FFA6
:103E8000C8C0933031F48091EB0080628093EB00E6
:103E9000C0C09091EB0090619093EB0021E030E086
:103EA00001C0220F8A95EAF72093EA001092EA00F7
:103EB0008091EB008860EACF8111B4C010918D022F
:103EC0001F778091E3008078812B8093E3008091BD
:103ED000E800877F8093E8000E94F91C8091E80049
:103EE00080FFFCCF8091E30080688093E30082E054
:103EF000111183E080938A0295C08058823008F0C7
:103F000091C080918D0290918E028C3D23E09207AA
:103F1000A1F583E08A838AE289834FB7F894DE01B2
:103F2000139620E03EE051E2E32FF0E0509357007B
:103F3000E49120FF03C0E295EF703F5FEF708E2F9A
:103F400090E0EA30C0F0C7968D939D932F5F2431A7
:103F500059F74FBF8091E800877F8093E8006AE2BD
:103F600070E0CE0101960E94081C8091E8008B77DA
:103F70008093E80057C0C096E7CF60918F027091A0
:103F80009002AE014F5F5F4F0E94481BBC01892B1E
:103F900009F448C09091E800977F9093E8008981E8
:103FA0009A810E94661CE1CF8038E1F58091E8009B
:103FB000877F8093E800809186028093F10045CF4F
:103FC000811130C090918D02923060F58091E800AF
:103FD000877F8093E800909386020E94F91C80916D
:103FE0008602882311F084E005C08091E30087FDFC
:103FF000FACF81E080938A020E94321A13C0809126
:104000008D02813079F481E0933009F080E0809373
:1040100088021092E9008091E800877F8093E80091
:104020000E94F91C8091E80083FF0AC08091E8009B
:10403000877F8093E8008091EB0080628093EB00A3
:10404000AA96E3E00C9483200895CF9380918A028E
:104050008823A1F0C091E900CF709091EC00892FE6
:10406000817090FD80E8C82B1092E9008091E800F3
:1040700083FD0E94DD1ECF70C093E900CF910895AB
:104080000E94491D10928A020895E8EDF0E08081B7
:10409000806180838AE18A95F1F700C08091D90020
:1040A00081700895EE0FFF1F0590F491E02D0994A3
:1040B0002F923F924F925F926F927F928F929F9238
:1040C000AF92BF92CF92DF92EF92FF920F931F9326
:1040D000CF93DF93CDB7DEB7CA1BDB0B0FB6F894D7
:1040E000DEBF0FBECDBF09942A88398848885F8417
:1040F0006E847D848C849B84AA84B984C884DF8088
:10410000EE80FD800C811B81AA81B981CE0FD11D6B
:104110000FB6F894DEBF0FBECDBFED010895FB01D1
:10412000DC0104C08D910190801921F44150504070
:10413000C8F7881B990B0895FB01DC0102C00190B0
:104140000D9241505040D8F70895F999FECF92BD95
:1041500081BDF89A992780B50895A8E1B0E042E0C2
:1041600050E00C94D920262FF999FECF92BD81BD45
:10417000F89A019700B4021639F01FBA20BD0FB6A5
:10418000F894FA9AF99A0FBE08950396272F0E9481
:10419000B4200E94B320252F0E94B420242F0C9419
:1041A000B4200196272F0E94B4200C94B320DC0188
:1041B000CB01FC01F999FECF06C0F2BDE1BDF89A32
:1041C000319600B40D9241505040B8F70895F894DC
:1041D000FFCFD004D004010501058E053005300560
:1041E0003005AA051B062A062A06011F291F1220D0
:0E41F000291F12205C1F7D1F1220D41FE01F0C
:1041FE000A0201000000010000000000000005019D
:10420E000000000406000000000000A319A7190911
:10421E001A041AFF19A61901E200E900EA00B50016
:10422E00B600B700CD008301CC008A019201940143
:10423E002102230224022502260227022A02B300AB
:10424E00B4006F007000818283E200E900EA00B5DD
:10425E0000B600B700CD008301CC008A0192019414
:10426E00012102230224022502260227022A02B37A
:10427E0000B4006F007000818283F4F5F6F73133DD
:08428E00329497C63435310269
:00000001FF
